{
  "contractName": "Game",
  "abi": [
    {
      "inputs": [
        {
          "internalType": "address",
          "name": "",
          "type": "address"
        }
      ],
      "name": "db",
      "outputs": [
        {
          "internalType": "bool",
          "name": "",
          "type": "bool"
        }
      ],
      "stateMutability": "view",
      "type": "function",
      "constant": true
    },
    {
      "inputs": [
        {
          "internalType": "address",
          "name": "",
          "type": "address"
        }
      ],
      "name": "values",
      "outputs": [
        {
          "internalType": "uint256",
          "name": "",
          "type": "uint256"
        }
      ],
      "stateMutability": "view",
      "type": "function",
      "constant": true
    },
    {
      "inputs": [
        {
          "internalType": "address",
          "name": "_address",
          "type": "address"
        }
      ],
      "name": "add",
      "outputs": [],
      "stateMutability": "nonpayable",
      "type": "function"
    },
    {
      "inputs": [
        {
          "internalType": "address",
          "name": "player",
          "type": "address"
        }
      ],
      "name": "getLifetimeScore",
      "outputs": [
        {
          "internalType": "uint256",
          "name": "",
          "type": "uint256"
        }
      ],
      "stateMutability": "view",
      "type": "function",
      "constant": true
    },
    {
      "inputs": [
        {
          "internalType": "uint256",
          "name": "x",
          "type": "uint256"
        }
      ],
      "name": "toBytes",
      "outputs": [
        {
          "internalType": "bytes",
          "name": "b",
          "type": "bytes"
        }
      ],
      "stateMutability": "pure",
      "type": "function",
      "constant": true
    }
  ],
  "bytecode": "0x608060405234801561001057600080fd5b50610652806100206000396000f3fe608060405234801561001057600080fd5b50600436106100575760003560e01c80630a3b0a4f1461005c57806354fe9fd714610078578063767bba73146100a8578063775a8f5e146100d85780639ee5abbb14610108575b600080fd5b6100766004803603810190610071919061035d565b610138565b005b610092600480360381019061008d919061035d565b6101df565b60405161009f91906103a3565b60405180910390f35b6100c260048036038101906100bd919061035d565b6101f7565b6040516100cf91906103a3565b60405180910390f35b6100f260048036038101906100ed91906103ea565b610240565b6040516100ff91906104b0565b60405180910390f35b610122600480360381019061011d919061035d565b61029d565b60405161012f91906104ed565b60405180910390f35b60016000808373ffffffffffffffffffffffffffffffffffffffff1673ffffffffffffffffffffffffffffffffffffffff16815260200190815260200160002060006101000a81548160ff02191690831515021790555061019960646102bd565b600160008373ffffffffffffffffffffffffffffffffffffffff1673ffffffffffffffffffffffffffffffffffffffff1681526020019081526020016000208190555050565b60016020528060005260406000206000915090505481565b6000600160008373ffffffffffffffffffffffffffffffffffffffff1673ffffffffffffffffffffffffffffffffffffffff168152602001908152602001600020549050919050565b6060602067ffffffffffffffff81111561025d5761025c610508565b5b6040519080825280601f01601f19166020018201604052801561028f5781602001600182028036833780820191505090505b509050816020820152919050565b60006020528060005260406000206000915054906101000a900460ff1681565b60008042446102cc9190610566565b905060006102d982610240565b905083818051906020012060001c6102f191906105eb565b92505050919050565b600080fd5b600073ffffffffffffffffffffffffffffffffffffffff82169050919050565b600061032a826102ff565b9050919050565b61033a8161031f565b811461034557600080fd5b50565b60008135905061035781610331565b92915050565b600060208284031215610373576103726102fa565b5b600061038184828501610348565b91505092915050565b6000819050919050565b61039d8161038a565b82525050565b60006020820190506103b86000830184610394565b92915050565b6103c78161038a565b81146103d257600080fd5b50565b6000813590506103e4816103be565b92915050565b600060208284031215610400576103ff6102fa565b5b600061040e848285016103d5565b91505092915050565b600081519050919050565b600082825260208201905092915050565b60005b83811015610451578082015181840152602081019050610436565b83811115610460576000848401525b50505050565b6000601f19601f8301169050919050565b600061048282610417565b61048c8185610422565b935061049c818560208601610433565b6104a581610466565b840191505092915050565b600060208201905081810360008301526104ca8184610477565b905092915050565b60008115159050919050565b6104e7816104d2565b82525050565b600060208201905061050260008301846104de565b92915050565b7f4e487b7100000000000000000000000000000000000000000000000000000000600052604160045260246000fd5b7f4e487b7100000000000000000000000000000000000000000000000000000000600052601160045260246000fd5b60006105718261038a565b915061057c8361038a565b9250827fffffffffffffffffffffffffffffffffffffffffffffffffffffffffffffffff038211156105b1576105b0610537565b5b828201905092915050565b7f4e487b7100000000000000000000000000000000000000000000000000000000600052601260045260246000fd5b60006105f68261038a565b91506106018361038a565b925082610611576106106105bc565b5b82820690509291505056fea264697066735822122092b07a0c39d5ebdfba57e9d7dbc4e6969b95c51c766b2e1963247da13fa0015064736f6c634300080a0033",
  "immutableReferences": {},
  "source": "// SPDX-License-Identifier: GPL-3.0\r\npragma solidity >=0.8.0;\r\n\r\ncontract Game {\r\n\r\n    mapping(address => bool) public db;\r\n    mapping(address => uint) public values;\r\n\r\n    function add(address _address) public {\r\n        db[_address] = true;\r\n        values[_address] = random(100);\r\n    }\r\n\r\n   \r\n    function getLifetimeScore(address player) public view returns(uint256){\r\n        return values[player];\r\n    }\r\n\r\n    function random(uint _modulus) private view returns(uint){\r\n        uint source = block.difficulty + block.timestamp;\r\n        bytes memory source_b = toBytes(source);\r\n        return uint(keccak256(source_b)) % _modulus;\r\n    }\r\n\r\n    function toBytes(uint256 x) public pure returns (bytes memory b) {\r\n        b = new bytes(32);\r\n        assembly { mstore(add(b, 32), x) }\r\n    }\r\n\r\n}",
  "sourcePath": "C:\\Users\\Owner\\Desktop\\challengeSolidity\\contracts\\Game.sol",
  "compiler": {
    "name": "solc",
    "version": "0.8.10+commit.fc410830.Emscripten.clang"
  },
  "schemaVersion": "3.4.3",
  "updatedAt": "2021-12-04T19:00:10.133Z",
  "networkType": "ethereum",
  "devdoc": {
    "kind": "dev",
    "methods": {},
    "version": 1
  },
  "userdoc": {
    "kind": "user",
    "methods": {},
    "version": 1
  }
}